:100000000C94A9060C94C6060C94C6060C9479327E
:100010000C94C6060C94C6060C94C6060C94C60630
:100020000C94C6060C94C6060C945B1C0C94171C0E
:100030000C94C6270C94C6060C94C6060C94C606EF
:100040000C94C6060C94C6060C94C6060C94C60600
:100050000C94C6060C94341D0C94C6060C94C6066B
:100060000C94C6060C94C6060C94C6060C94C606E0
:100070000C94C6060C94C6060C94C6060C94C606D0
:100080000C94C6060C94C6060C94C6060C94C606C0
:100090000C94C6060C94C6060C94C6060C94C606B0
:1000A0000C94C6060C94C6060C94C60646756E6380
:1000B00074696F6E004D6F7573650046616B650006
:1000C00044656661756C740005010902A101850231
:1000D0000901A10005091901290815002501950844
:1000E000750181020501093009311581257F9502CD
:1000F0007508810609381581257F950175088106E7
:10010000050C0A38021581257F950175088106C006
:10011000C00660FF0961A1010962150026FF009574
:1001200020750881020963150026FF0095207508D7
:100130009102C005010906A101050719E029E7158B
:100140000025019508750181029501750881010559
:1001500007190029FF150026FF0095067508810084
:100160000508190129059505750191029501750389
:100170009101C0000000000000000000000000002D
:10018000000000000000000000000000000000006F
:10019000000000000000007E0F00D4FFFFFFC7003A
:1001A00000007800000000000000002A2B2800005A
:1001B0000000000000000000000000000000290016
:1001C0000000002C1E3420212224342627252E3620
:1001D0002D3738271E1F202122232425263333368E
:1001E0002E37381F0405060708090A0B0C0D0E0FE1
:1001F000101112131415161718191A1B1C1D2F3164
:1002000030232D350405060708090A0B0C0D0E0FC7
:10021000101112131415161718191A1B1C1D2F3143
:1002200030354C00DA0281FFD9F1DB20A4A62EAFD5
:1002300000A0C000A1C800AED580A81FD300408D8B
:100240001420007F3F1F643214783C1E1E140A05E0
:10025000437572736F72005363726F6C6C006370DE
:10026000692F646976002000436D640020004F70A0
:100270007400200053686966740020004374726C37
:10028000004B616E61002000436D700020005363DD
:10029000720020004E756D002000436170730020D5
:1002A0004C6179657200556E646566696E656400BF
:1002B000808182838485868788898A8B8C8D8E8FC6
:1002C0009091929394A0A1A2A3A4A5A6A7A8A9AA3D
:1002D000ABACADAEAFB0B1B2B3B4C0C1C2C3C4C5B4
:1002E000C6C7C8C9CACBCCCDCECFD0D1D2D3D4000B
:1002F00000010101010101010101020202020202E9
:1003000002020203030303030303030404040404BB
:100310000404050505050506060606060707070782
:100320000708080808090909090A0A0A0B0B0B0C37
:100330000C0C0D0D0D0E0E0E0F0F0F1010111111D4
:100340001212131314141515161617171818191955
:100350001A1A1B1B1C1D1D1E1E1F202021222223BA
:100360002424252626272829292A2B2C2D2D2E2FFB
:1003700030313232333435363738393A3B3C3D3E12
:100380003F404142434445464748494A4C4D4E4F01
:1003900050515354555658595A5B5D5E5F616264C3
:1003A000656668696B6C6D6F7072737577787A7B50
:1003B0007D7E8082838587888A8C8E8F91939596A7
:1003C000989A9C9EA0A2A3A5A7A9ABADAFB1B3B5C7
:1003D000B7BABCBEC0C2C4C6C9CBCDCFD1D4D6D8A3
:1003E000DBDDDFE2E4E7E9EBEEF0F3F5F8FAFDFF41
:1003F000FFAA7F55402223252628292A2C2D2F307D
:1004000032333536383A3B3D3E4042434547494A10
:100410004C4E5051535557595A5C5E606264666841
:10042000696B6D6F71737577797B7D7F818385874C
:10043000898A8C8E90929496989A9C9E9FA1A3A54F
:10044000A7A8AAACAEAFB1B3B4B6B8B9BBBCBEBF77
:10045000C1C2C3C5C6C7C9CACBCCCDCED0D1D2D2FA
:10046000D3D4D5D6D7D7D8D9D9DADADBDBDBDCDC05
:10047000DCDCDCDDDDDDDDDCDCDCDCDCDBDBDBDABD
:10048000DAD9D9D8D7D7D6D5D4D3D2D2D1D0CECD28
:10049000CCCBCAC9C7C6C5C3C2C1BFBEBCBBB9B835
:1004A000B6B4B3B1AFAEACAAA8A7A5A3A19F9E9CBA
:1004B0009A98969492908E8C8A89878583817F7D85
:1004C0007B79777573716F6D6B6968666462605E66
:1004D0005C5A5957555351504E4C4A49474543422F
:1004E000403E3D3B3A3836353332302F2D2C2A29C9
:1004F00028262523220000000000003E5B4F5B3EC3
:10050000003E6B4F6B3E001C3E7C3E1C00183C7E48
:100510003C18001C577D571C001C5E7F5E1C0000B1
:10052000183C180000FFE7C3E7FF0000182418007C
:1005300000FFE7DBE7FF0030483A060E0026297986
:10054000292600407F05050700407F05253F005A0A
:100550003CE73C5A007F3E1C1C0800081C1C3E7FE8
:100560000014227F2214005F5F005F5F0006097F96
:10057000017F00006689956A006060606060009499
:10058000A2FFA2940008047E04080010207E201020
:100590000008082A1C0800081C2A0808001E101061
:1005A0001010000C1E0C1E0C0030383E38300006B7
:1005B0000E3E0E060000000000000000005F00007C
:1005C00000000700070000147F147F1400242A7F16
:1005D0002A12002313086462003649562050000096
:1005E0000807030000001C224100000041221C00FB
:1005F000002A1C7F1C2A0008083E080800008070A2
:1006000030000008080808080000006060000020B2
:1006100010080402003E5149453E0000427F400060
:10062000007249494946002141494D3300181412CE
:100630007F10002745454539003C4A494931004172
:100640002111090700364949493600464949291E02
:1006500000000014000000004034000000000814F6
:100660002241001414141414000041221408000242
:1006700001590906003E415D594E007C1211127C61
:10068000007F49494936003E41414122007F4141B6
:10069000413E007F49494941007F09090901003E67
:1006A00041415173007F0808087F0000417F4100ED
:1006B000002040413F01007F08142241007F40405C
:1006C0004040007F021C027F007F0408107F003E34
:1006D0004141413E007F09090906003E4151215E2A
:1006E000007F091929460026494949320003017F44
:1006F0000103003F4040403F001F2040201F003FBB
:100700004038403F00631408146300030478040376
:10071000006159494D4300007F41414100020408F6
:10072000102000004141417F00040201020400400A
:100730004040404000000307080000205454784027
:10074000007F284444380038444444280038444456
:10075000287F0038545454180000087E09020018FD
:1007600024241C78007F080404780000447D4000A5
:10077000002040403D00007F102844000000417FE1
:100780004000007C04780478007C08040478003879
:1007900044444438007C1824241800182424187C6D
:1007A000007C080404080048545454240004043F06
:1007B0004424003C4040207C001C2040201C003C85
:1007C0004030403C004428102844004C9090907CDD
:1007D000004464544C440000083641000000007797
:1007E0000000000041360800000201020402003C43
:1007F0002623263C0000000000000000000000004E
:1008000000000000000000000000000000C0F0F840
:100810008C86C6E7FFFFFFFFFFFFFEFCFCF8E080D1
:10082000000000F0F0F00000C0E0F0707000000088
:1008300000000000000000000000000000000000B8
:10084000000000F8F8F800000000000000000000C0
:10085000000000000000000000F8F8F80000F8F8C0
:10086000F800000000000000000000000000000090
:10087000000000E0F0F0F0E0ECEEF7F37020007C18
:100880007C7C7E007E7E7E7F7F7F000080C0E07E5D
:100890005B4F5BFEC00000C000DCD7DEDEDED7DCD5
:1008A00000C0000000000000000000000000000088
:1008B0000000000000000000000000000000000038
:1008C00000000000000080E07078686C64C7C7C753
:1008D000C7C7C7E73F1F0F3FFFFFFFFFFFFF3F0FE8
:1008E000000000FFFFFF1E3FFFF3E1800000F8FC67
:1008F000FE3636363EBCB8000E3EFEF080F0FE3EC0
:100900000E0000FFFFFF060606FEFEFC7000E6F686
:10091000F63636FEFEFC000000FFFFFF0000FFFF82
:10092000FF000000000000000000000000000000C8
:100930000000000F1F3F7F7F7F7F7F3F1E0C001F47
:100940001F1F3F003F3F3F7F7F7F00307B7F78301E
:10095000202030787F3B0003000F7F0F0F0F7F0FA9
:100960000003000000000000000000000000000084
:100970000000000000000000000000000000000077
:1009800000000000003C7F6360E0C0C0C0C0C0C089
:10099000C0C0FFFFC06030180F0303030100000058
:1009A000000000030303000000030303030001032E
:1009B00003030303030301007070393F1F070100A5
:1009C000000000010303030303030301000001030C
:1009D00003030303030100000003030300000303F8
:1009E0000300000000000000000000000000000004
:1009F00000000000000000000000000000000000F7
:100A000000000000000000000000000000000000E6
:100A100000000000000000000000000000000000D6
:100A200000000000000000000000000000000000C6
:100A3000000000000000AF00AE29001E001F0000F3
:100A40000020002100220000004C0014001A0000C9
:100A50000008001500170000002B0004001600001D
:100A600000070009000A00000001511D001B0000E2
:100A70000006001900050030000100E000E200005F
:100A800000E30091412C4290432D002700260000F6
:100A9000002500240023000000890013001200003C
:100AA000000C0018001C000000240233000F00009E
:100AB000000E000D000B000000E5003800370000BC
:100AC0000036001000110032004600E60001000070
:100AD00000E700914128422A0029021E022F00004F
:100AE0000020022102220200004C0214021A02001D
:100AF0000008021502170200002B02040216020071
:100B000000070209020A02000001001D021B020088
:100B10000006021902050230020100E002E20200B2
:100B200000E3020100010001008702260225020005
:100B300000340223022E0000008902130212020078
:100B4000000C0218021C0200001F0234000F0200F9
:100B5000000E020D020B020000E50238023702000F
:100B60000036021002110232020100E6020100000A
:100B700000E70201000100010001003A003B000013
:100B8000003C003D003E0000000100010024000088
:100B900000250026000100000001000100210000E6
:100BA000002200230033020000010001001E0000AB
:100BB000001F0020002D0225020100010027000077
:100BC0000037000100010001004400430042000022
:100BD00000410040003F000000450001004F0000C0
:100BE0000052005000010000000100F600F5000076
:100BF000005100F4004B0000000100010001000062
:100C000000010001004E0026020100010001000069
:100C1000000100010001004C00C25C010001000065
:100C2000000100010001000000C35CC55CC75C005E
:100C300000C95C010001000000C45CC65CC85C0027
:100C400000CA5C01000100000001000100AE5E006E
:100C500000AD5EAC5EAB5EDE5C005C01005000008F
:100C600000510052004F000100D25CD15CD05C000A
:100C700000CF5CCE5CCD5C0000010001005D5D003A
:100C800000D55CD45CD35C0000A55EA65EA95E00C6
:100C900000A75EA85EAA5E0000010001004D0000F2
:100CA000004B004E004A00DE5C005C0100010000C9
:100CB00000010001002A00010009025B000301009D
:100CC000A0FA09040000010301010009211101003B
:100CD0000122400007058103080001090401000208
:100CE00003000000092111010001222200070582F2
:100CF000032000010705030320000109040200018D
:100D000003000000092111010001224900070584A8
:100D100003200001120100020000000857590001E1
:100D200001000102000114034B006500790062001C
:100D300061006C006C0036003100000010035900A7
:100D40006F0077006B00650065007300000004030E
:100D5000090411241FBECFEFDAE0DEBFCDBF11E0E2
:100D6000A0E0B1E0E8E8F9E602C005900D92A03DF0
:100D7000B107D9F726E0A0EDB1E001C01D92A83679
:100D8000B207E1F70E94ED270C948F340C94000019
:100D9000E8EDF0E080818E7F80831092E200109277
:100DA000DA001092E100A0EEB0E08C9181608C93AB
:100DB00080818F77808319BCA7EDB0E08C918E7F06
:100DC0008C9380818F7E80831092200608952091DD
:100DD000E4003091E50095E6A9012091EC00822F16
:100DE000817020FF06C08091E80080FF06C080E08F
:100DF00008952091E80022FD1AC080912E068823D4
:100E000089F0853089F08091EB0085FD0FC020913D
:100E1000E4003091E50042175307F9F29150E1F6F2
:100E200084E0089582E0089583E0089581E00895C4
:100E3000EF92FF920F931F93CF937C018B010E943F
:100E4000E706C82F811117C08091E80085FD0BC00F
:100E50008091E8008E778093E8000E94E70688235F
:100E600099F3C82F08C0F70181917F018093F100A9
:100E70000150110949F78C2FCF911F910F91FF90CD
:100E8000EF9008958091300687FF13C08091E800AD
:100E900082FF06C08091E8008B778093E80004C051
:100EA00080912E068111F2CF089580912E0688231D
:100EB000D9F38091E80080FFF8CF8091E8008E7729
:100EC000ECCF982F9093E900242F762F50E08917CC
:100ED00031F07091EC002091ED005091F00021FD77
:100EE00007C09F5F973071F78093E90081E0089514
:100EF0003091EB003E7F3093EB003091ED003D7F71
:100F00003093ED003091EB0031603093EB00709343
:100F1000EC002093ED005093F0002091EE0027FDAF
:100F2000E0CF80E00895B0E0A0E0E9E9F7E00C94BC
:100F3000B333C8EDD0E088818F7E8883E7EDF0E0A1
:100F400080818160808384E082BF81E0809320067D
:100F500088818E7F888302EE10E0F8011082109263
:100F6000DA0081EEC82ED12CF601108288818F77AD
:100F7000888388818068888388818F7D888319BC75
:100F800010922E0610922F0610922D0610922C060B
:100F900090EEE92EF12CF70180818B7F8083888190
:100FA0008160888342E060E080E00E946107F60192
:100FB00080818E7F8083F801808181608083808141
:100FC00088608083F70180818E7F80838881806143
:100FD0008883CDB7DEB7E8E00C94CF33FC01809175
:100FE00036069091370686179707A0F061157105B0
:100FF00029F49091E8009E779093E80090E06115C5
:10100000710551F4911108C08091E80082FF34C04D
:1010100080E00895BC01F2CF80912E068823C1F1B3
:101020008530C1F18091E80083FD30C08091E800F7
:1010300082FDEACF8091E80080FFE1CF8091F3004C
:101040002091F200382F6115710519F02830310513
:1010500058F091E02830310509F090E02091E80047
:101060002E772093E800CBCF81918093F1006150DF
:1010700071092F5F3F4FE7CF80912E06882341F003
:10108000853041F08091E80083FFBECF81E0089574
:1010900082E0089583E00895089508950895809169
:1010A0002306089587E797E7909301088093000847
:1010B00088E19AE00FB6F894A895809360000FBE7F
:1010C00090936000FFCF2FB7F89460911C06709149
:1010D0001D0680911E0690911F062FBF08959C014A
:1010E000FC0132969FEF80E04191461751F09F3FFF
:1010F00019F4411101C0982F8F5F8630A9F79F3FE7
:1011000009F40895290F311D97FD3A95F90162837D
:101110000895FC01680F791F8FEF91E321918227D9
:1011200028E030E087FF09C0880F89272150310966
:10113000C9F7E617F70791F70895880FF7CFFA0177
:10114000811101C0FB01099508950895E1E2F3E0E2
:101150001182828184608283089580910304982F94
:101160009E7F61F481708260809303048091060405
:10117000893718F088E78093060408958833B0F320
:1011800081708663F1CFAF92BF92DF92EF92FF92B0
:101190000F931F93CF93DF93082F162FE901E42FAE
:1011A000F0E0E051FD4F611110C0E4915E2F4E2F31
:1011B0004983E8835A83DF91CF911F910F91FF906C
:1011C000EF90DF90BF90AF900895E62EF12C449100
:1011D000D42EE42FF0E026E0829FC00111242FEFEF
:1011E00030E0B9010E949533802F90E0880F991F5D
:1011F00055E5569FD001579FB00D11248A1B9B0BBC
:10120000982F990F890F5901AE18BF08AE9ED001D3
:10121000AF9EB00DBE9EB00D11245B2F189F8001B4
:101220001124012F11275901A01AB10AAE9E800185
:10123000AF9E100DBE9E100D11245901A81AB108C1
:10124000AE9CC001AF9C900DBE9C900D1124892FC7
:101250009927281B390B2E9FC0012F9F900D3E9F71
:10126000900D1124E92F62307105A1F050F4611541
:10127000710509F49DCF6130710581F0EB2F512F7D
:1012800097CF6430710569F080F06630710509F41C
:101290008FCFF4CFE42F4B2F592F8ACFE42F412F3C
:1012A00087CFEB2F542F492F83CF4B2F5D2DE12F6D
:1012B0007FCFCF93DF93E9E3F6E083819481A5812B
:1012C000B681E90188839983AA83BB831482138240
:1012D00016821582DF91CF91089580E0089563E032
:1012E00070E082E692E00E94890890916102891381
:1012F00018C0E0916202EB30A4F488E0E802F0014B
:101300001124E65FFE4F0680F781E02D309749F00B
:1013100025E832E04091640265E672E08091630264
:1013200009950895EAE0F1E0AFE4B2E054968C91BB
:10133000549780A755968C9183AF08959091BC02E5
:1013400092FF06C0282F28712830F9F4877F846027
:1013500093FF06C0282F28712831F1F4877E84611D
:101360002091BD0220FF06C0382F38713830D9F4E3
:10137000877F816021FF06C0282F28712831D1F492
:10138000877E816194FD877E0895282F2471243003
:10139000F9F68B7F8860DCCF282F2471243101F788
:1013A0008B7E8861DDCF382F3171313019F78E7F18
:1013B0008860E0CF282F2171213121F78E7E88614E
:1013C000E1CFCF93DF93EC018238910589F1E0F50D
:1013D0008133910509F499C028F58932910509F402
:1013E00089C08A9709F498C0C11523E5D20708F08F
:1013F000B3C0C11532E5D30708F00FC1C11540E2F3
:10140000D40708F097C0C11581E0D80758F5C53A50
:10141000D10508F088C0C430D10520F5C130D10510
:1014200009F145C08533910509F45FC0C997E1F61C
:101430008091BC02837009F025C18091BD0283FFB9
:1014400011C0C9E2D0E00EC0833E910599F170F45D
:10145000803E910501F1823E910531F68091BC02FA
:1014600082FD21C0CE01DF91CF910895863E910586
:1014700061F1873E910571F1843E910509F0B4CF89
:101480008091BD0281FFEECF8091BC02C7EED0E01B
:1014900084FD0DC0E7CF8091BC0280FD33C09091E8
:1014A000BD0290FFDFCFC3EED0E084FFDBCFD0E002
:1014B000C0E0D8CF8091BC0282FDE1C09091BD0216
:1014C00090FDE0C084FFCECFF2CF8091BC0283FDBF
:1014D000DDCFC8CF8091BC0283FDD7C09091BD0203
:1014E00091FFF0CFC4EED0E0BDCF8091BC0285FF6C
:1014F000B9CFA7CF8091BC0285FDCAC08091BD0243
:1015000083FFB0CFC9E3D0E0ADCF8091BC0286FFAE
:10151000A9CFCAE2D0E0A6CF8091BC0286FFA2CFBD
:10152000C1E3D0E09FCFCE01815E9109079708F417
:1015300099CFBDCFC11521E5D20708F069C0C1150B
:1015400030E5D30708F050C0C11540E4D40708F4D3
:10155000AECFDF70D06A86CFC11586E5D807F0F42C
:10156000C11525E5D20708F071C0C11534E5D307D0
:1015700008F067C0CE018370992721E030E002C0F7
:10158000220F331F8A95E2F7C695C69540E2C49FA5
:10159000E0011124C22BD32BDA6864CFC1154AE5D0
:1015A000D40778F4C11589E5D80708F05AC0C115E9
:1015B00028E5D20708F47BCFDC2FCC27C06FD06A98
:1015C00051CFCE0190568115904208F070CF8D2FEB
:1015D0008F710E949E0990E0982F882788279F711D
:1015E0009C012C2BE9013BC0CE018370992721E09F
:1015F00030E002C0220F331F8A95E2F7C695C695E8
:1016000040E2C49FE0011124C22BD32BDD682ACF16
:10161000DC2FCC27C16FD06A25CFCE0183709927EC
:1016200021E030E002C0220F331F8A95E2F7C69511
:10163000C69580E2C89FE0011124C22BD32BDC6841
:1016400011CFDC2FCC27C46FD06A0CCF8C2F0E9417
:101650009E09C82FD0E0DC2FCC27CC27DF71D062C9
:1016600001CF8C2F8F700E949E0934E0D695C795CC
:101670003A95E1F7CF709C2FEC01D069F3CEC2EE22
:10168000D0E0F0CEC0EED0E0EDCEC6EED0E0EACEB7
:10169000C5E3D0E0E7CE80914D02811110924D025A
:1016A000089580959091210698239093210608959E
:1016B0008091420290911102981301C008958F5FAA
:1016C0008770FACF9A3080F5883070F548E0949FA3
:1016D00090011124820F932F911D682F677023E0D2
:1016E000969587952A95E1F7FC01EE0FFF1FE80F0D
:1016F000F91FE351FE4F50E040E080E0219130E0DF
:10170000062E02C0369527950A94E2F721703327FA
:10171000042E01C0220F0A94EAF7822B4F5F5F4F1D
:101720004330510559F7089580E008959A3098F5AF
:10173000883088F548E0949F90011124820F932F00
:10174000911D282F277041E001C0440F2A95EAF728
:1017500023E0969587952A95E1F7FC01EE0FFF1F90
:10176000E80FF91FE351FE4F90E080E070E05191E7
:10177000DF0111979B01082E02C0369527950A9428
:10178000E2F7217021952527242325272C93019604
:101790008330910561F70895982F92959F7011F00D
:1017A000892F94E0282F2695269511F09E5F822F91
:1017B000869509F09F5F892F0895CF93C82F809158
:1017C00046068C1751F00E94630860934706709399
:1017D00048068093490690934A06C0934606CF91E7
:1017E0000895B0E0A0E0E7EFFBE00C94B333FC0118
:1017F000EB0190914B06911101C094E060817181E1
:1018000091509B01092E02C0359527950A94E2F765
:10181000D901092E02C0AA0FBB1F0A94E2F76A1B66
:101820007B0B71836083628173818B01092E02C0FF
:10183000159507950A94E2F7D80102C0AA0FBB1FBD
:101840009A95E2F76A1B7B0B7383628381E8013808
:10185000BFEF1B072CF0802F003811050CF08FE72D
:101860008D8321389FEF390754F1203831054CF52D
:10187000922F91959C83442319F081958D832C831D
:101880000E9463082D81211103C02C812223D9F0ED
:1018900060934C0670934D0680934E0690934F06CE
:1018A000809150069BE0980F973120F4080F009329
:1018B00050061D82CDB7DEB7E8E00C94CF3321E8A7
:1018C000D7CF2FE7D5CFC0904C06D0904D06E090F3
:1018D0004E06F0904F066C197D098E099F096436FB
:1018E000710581059105E0F210925006D9CFFC01F7
:1018F000DB012281338191E821388FEF38072CF00A
:10190000922F203831050CF09FE712969C93129786
:101910002081318121388FEF3807A4F0203831053C
:101920009CF413962C931397442339F091951296B7
:101930009C931297219513962C93118210821382F7
:101940001282089521E8EDCF2FE7EBCF9C01860F9F
:10195000971F37FD07C077FD04C097FF02C08FEFC8
:101960009FE7089577FFFDCF97FDFBCF80E090E8DC
:101970000895E82FE295EF70F0E031A1282F2F7045
:1019800081E090E001C0880F2A95EAF7382B31A357
:1019900092A18095892382A30895E82FE295EF70A4
:1019A000F0E031A1282F2F7081E090E001C0880F76
:1019B0002A95EAF7982F9095932391A392A1892BCA
:1019C00082A30895B0E0A0E0E8EEFCE00C94B3330D
:1019D0007C016B0180915B0601E010E08A3010F41D
:1019E0000AE010E0C1E0D0E061E676E0C701F60170
:1019F0000995811104C021960C171D072CF4CDB751
:101A0000DEB7E8E00C94CF33CC9F9001CD9F300D32
:101A1000300D112490E080E045E34A95F1F7000095
:101A2000019682179307C1F7DFCF9C0184E0809372
:101A3000E9009FEF8091E800915085FD06C085ED9B
:101A40008A95F1F700009111F5CF8091E80085FFAC
:101A50000CC050E040E066E070E0C9010E94180749
:101A60008091E8008E778093E8000895CF93DF930C
:101A7000EC0181E08093E9008FEF9091E8008150C4
:101A800095FD06C095ED9A95F1F700008111F5CF0F
:101A90008091E80085FF14C050E040E068E070E00D
:101AA000CE010E9418078091E8008E778093E800AD
:101AB00088E0FE01A4E2B6E001900D928A95E1F77C
:101AC000DF91CF910895609184018091030480FF9C
:101AD00020C08091830143E0849FC00111248C5D6C
:101AE0009C4F539A2BB1277F3BB138605FB7F89476
:101AF000FC01649FE00DF11D1124BF0168177907F7
:101B0000D1F45FBF8FE594E00197F1F700C00000CA
:101B10000895809185019091860123E0829FF001D4
:101B20001124EC5DFC4F8917A0F6118210821282FD
:101B30008F5F3396F8CFFC014191CF01E8E03BB9CC
:101B4000000000C047FF2BB9440F000000C000C0D8
:101B500000C02BB900C0EA9591F7D0CFEF92FF9269
:101B60000F931F93CF93DF93EC018C81811109C0F8
:101B700081E08C831092020492E090938101809323
:101B80008001809185019091860123E0829FF00180
:101B90001124EC5DFC4F891758F110E003E06091CF
:101BA0008701161758F10E94630D809180012091E2
:101BB0000204280F2093020490918101980F9093C2
:101BC0008101191654F4022E000C330B4091870149
:101BD0004150550B2417350734F0819580938001CF
:101BE000813009F41C82CDB7DEB7E6E00C94D13326
:101BF0001182108212828F5F3396CDCFE12EF12CAD
:101C000070E0C7010E94FA3320918501820F482FAE
:101C100050E020910204022E000C330BE216F30672
:101C2000D4F020918101022E000C330B2E153F05BC
:101C300094F0809F900111242C5D3C4F409106044C
:101C4000493708F048E760910504809104040E9438
:101C5000C3081F5FA4CFFA01EE0FFF1FE40FF51FAB
:101C6000EC5DFC4F118210821282F3CFEF92FF9253
:101C70001F93CF93DF93EC0110E0EE24EA94F12C54
:101C800060918701161770F00E94630D9A818C8114
:101C900090FF2AC08F5F8C83DF91CF911F91FF90BF
:101CA000EF90089520918501422F410F5527551F30
:101CB000CA019A01220F331F280F391F2C5D3C4F98
:101CC00040910604493708F048E770E0C7010E94D8
:101CD000FA33962F8C8160910504199F800D112491
:101CE0000E94C3081F5FCCCF8150D5CF90910304D1
:101CF00090FF0EC0909185012091860133E0939F63
:101D0000F0011124EC5DFC4F921718F00E94630D56
:101D100008958183608342839F5F3396F5CFA3E06C
:101D2000B0E0E5E9FEE00C94B9339091030490FF34
:101D30000DC0493708F048E79E012F5F3F4F0E94D2
:101D4000C3084B8169818A810E94760E2396E2E066
:101D50000C94D533CF93DF93EC01E3E0F4E04381BF
:101D600062818C810E948F0E8C818F5F8C83DF91CA
:101D7000CF910895CF93DF93EC01EC81F0E0EB502D
:101D8000FC4F4491E3E0F4E0628181810E948F0E78
:101D90008C818F5F8C83DF91CF910895E3E0F4E035
:101DA00080818E7F80830E94A608E1E2F3E0828139
:101DB000816082832FEF80E792E021508040904045
:101DC000E1F700C000000E94630D089580914E026B
:101DD000811110C08091D80080618093D8008AE181
:101DE0008A95F1F700C08091D90080FF0AC081E098
:101DF00080934E0281E090914E02913009F080E094
:101E0000089582E080934E020E94C80610922E062A
:101E1000F1CF0E94E60E882359F0E0911906F09167
:101E20001A06309729F00190F081E02D0995089568
:101E300080E008950F931F930E94E60E882329F0F7
:101E40000E9463081F910F9108950E9463080091FA
:101E5000B6021091B7022091B8023091B902600F1A
:101E6000711F821F931FEECF57985F9A879A8F98A2
:101E700025E02A95F1F7000089B187988F9A90EABA
:101E80009A95F1F790E0880F892F881F990B21E030
:101E9000822781700895CF93DF9380913906C5E240
:101EA0008111C2E280913A06D0E0882329F0809126
:101EB0003B06D5E28111D2E20E94340F81110FC09E
:101EC0008D2F80938301C0938401CD0F10928501E3
:101ED000C0938601C0938701DF91CF91089580E080
:101EE000F0CF80913906F90180830E944B0F08954D
:101EF000B0E0A0E0EEE7FFE00C94B3336C017B01AF
:101F000064E670E088E70E94F330EC0197FD12C0B0
:101F100010E000E0F601E00FF11F849164E670E04C
:101F20000E945F31EC01892B29F40F5F1F4F0E15C2
:101F30001F0581F70E94D531CE01CDB7DEB7E8E0AD
:101F40000C94CF338091170690911806911103C01D
:101F500091E089270895882369F062E070E087E3C3
:101F60009AE00E94780F892B19F080911706089546
:101F70001092170680911706EBCFCF93C0911706EA
:101F8000809118068823D1F00E946308605A754139
:101F90008F4F9F4F6093130670931406809315061E
:101FA00090931606C11108C062E070E085E39AE0E4
:101FB0000E94780F892B29F0C09117068C2FCF91A2
:101FC000089581E080931706F7CFCF93DF93C7EA98
:101FD000D2E060E0CE010E945B342196C11584E01E
:101FE000D807B9F7DF91CF9108951F93CF93DF936F
:101FF000122F8430E0F46A30D0F44830C0F490E11D
:10200000699FE001112450E0440F551FC40FD51FF4
:1020100090EA899FC00DD11D1124632FCE018796B0
:102020000E945B34612FCE0188960E945B34DF9161
:10203000CF911F910895AF92BF92CF92DF92EF920E
:10204000FF921F93CF93DF9389E3C82E8AE0D82EA7
:10205000D0E07601C0E014C0F50125913491412F04
:102060006C2F8D2F0E94F50F82E0A80EB11C1F5F10
:10207000183091F780E1E80EF11CCF5FCA3019F0FB
:10208000570110E0E9CFDF5F80EAC80ED11CD430E1
:1020900001F7DF91CF911F91FF90EF90DF90CF90EC
:1020A000BF90AF90089586E290E00E945B3408955F
:1020B000CF93C82F6FEF811165E283E290E00E9419
:1020C0005B346FEFC11161E084E290E00E945B3409
:1020D0006FEFC11167E085E290E00E945B34CF9121
:1020E000089580E00E94581060E070E0CB010E94EB
:1020F00053100E941B100E94E50F81E00E945810AF
:1021000008950F931F93CF93DF93843030F56A3097
:1021100020F5483010F520E1629F8001112450E045
:10212000440F551F040F151F30EA839F000D111D2A
:102130001124C80187960E944734C82FD0E0DC2FB5
:10214000CC27C80188960E9447349E01282BC901DC
:10215000DF91CF911F910F91089590E080E0F8CF2B
:10216000462F843040F47A3030F4683020F4672F02
:102170000E948110089590E080E00895CF92DF9250
:10218000FF920F931F93CF93DF936C01009138065A
:102190008091D402082BC7E0D0E010E0FC2EC801EB
:1021A0000C2E02C0959587950A94E2F780FD0CC02D
:1021B0002197A0F7F12C8F2DDF91CF911F910F91D7
:1021C000FF90DF90CF900895B6018C2F0E94B01041
:1021D0000E94E109019761F3EECFCF93DF93EC0109
:1021E0000E94BE10BE010E94B0100E94E109DF9162
:1021F000CF910895FC0183819481892B29F08081FE
:10220000918189238F3F51F480E00895843FE1F765
:1022100017C0883EA8F0813FB9F712C08081918134
:102220000E94ED1092959F70963099F358F4925F4A
:102230009F70923048F7803F19F040F7883E20F7B2
:1022400081E008959A5FF4CF86E290E00E944734DF
:10225000682F70E090E080E0089583E290E00E94B3
:102260004734853289F484E290E00E94473481301B
:1022700059F485E290E00E94473491E0873009F0FC
:1022800090E0892F8170089580E0FCCFAEE1B0E04E
:10229000ECE4F1E10C94B93340911503509116032D
:1022A00060911703709118038091190390911A039C
:1022B0000E94921A2093150330931603409317033C
:1022C000509318036093190370931A0386E0E5E1B5
:1022D000F3E0DE01179601900D928A95E1F786E012
:1022E000FE013796DE011D9601900D928A95E1F769
:1022F00086E0FE013D96DE01119601900D928A95D1
:10230000E1F786E0FE013196A5E1B3E001900D9280
:102310008A95E1F786E0E5E1F3E0DE015996019068
:102320000D928A95E1F786E0FE017996DE01179617
:1023300001900D928A95E1F786E0FE013796DE0165
:10234000119601900D928A95E1F786E0FE01319693
:10235000DE01539601900D928A95E1F786E0FE0129
:102360007396DE01179601900D928A95E1F786E04B
:10237000FE013796A5E1B3E001900D928A95E1F751
:1023800046E050E06FE073E085E193E00E94313475
:10239000892B79F0E0911906F0911A06309749F0EF
:1023A00082E0809315030480F581E02D85E193E0C0
:1023B00009951092170310921803109219031092A6
:1023C0001A0386E0E5E1F3E0AFE0B3E001900D929F
:1023D0008A95E1F76E96E2E00C94D5338091210660
:1023E00090914C02892B8093D20190914D029923B8
:1023F00091F0892B8093D20120E084ED91E0FC01E3
:102400003191CF0131112F5FF1E08A3D9F07B9F77C
:1024100021110E944B0B48E050E064E472E082ED31
:1024200091E00E943134892BA9F088E0E2EDF1E0DF
:10243000A4E4B2E001900D928A95E1F7E0911906CB
:10244000F0911A06309731F00280F381E02D82ED91
:1024500091E009950895CF93C82F0E94CC0B91E08D
:10246000833009F090E0892F0E94DD0BC09338067D
:1024700010924C020E94EE11CF910895809138067F
:10248000982F9670963021F488600E942B12089540
:10249000877FFBCF21E030E001C0220F8A95EAF769
:1024A00020958091380682230E942B1208959091E6
:1024B00043028095892380934302282F277091F44B
:1024C000282F082E000C330B9217130659F0909109
:1024D000BD0292FF07C08595859585950E944A1299
:1024E000109243020895CF93C091BD02C2FB992779
:1024F00090F9981791F080FBC2F9C093BD026091EA
:10250000BC0284E090E00E945B346C2F82E290E099
:102510000E945B3482E00E945712CF91089521E01F
:1025200030E001C0220F8A95EAF780913806822BAD
:102530000E942B1208958093D40210924C020E94A4
:10254000EE110895882321F00E94510B0E94EE1194
:102550000895882339F090912106982B90932106B5
:102560000E94EE1108958823E1F19CEF980F913AB3
:1025700080F4E4EDF1E02AED31E09191891303C09C
:10258000DF0111971C922E173F07B9F70E94EE1139
:10259000089590E2980F983050F4877091E001C050
:1025A000990F8A95EAF7892F0E94510BEFCF9BE58F
:1025B000980F9330B8F48091E9019091EA01892B4A
:1025C00081F01092EA011092E901E0911906F09170
:1025D0001A06309731F00680F781E02D90E080E018
:1025E00009950895885A8731E0F78091EB01909121
:1025F000EC01892BB1F31092EC011092EB01E09108
:102600001906F0911A06309761F30084F185E02DE8
:10261000E5CFCF93C82F8823A9F08CEF8C0F813A98
:1026200000F5E4EDF1E0DF018D91C81769F081E07C
:10263000AA3DB807C9F76C2F82ED91E00E946F08A0
:102640000E94EE11CF9108958191C81303C0DF015C
:1026500011971C9281E0EA3DF807B1F70E94EE1154
:10266000EACF80E28C0F883068F7C77021E030E055
:1026700001C0220FCA95EAF780912106822B809330
:102680002106DECF1F93CF93DF93182FEB010E941B
:1026900009138FE99FE00197F1F700C0000021972F
:1026A000C1F7812F0E94B312DF91CF911F9108953E
:1026B0001F93CF93DF93162F8A3039F481E00E9465
:1026C000FB13DF91CF911F9108958D3011F480E0BD
:1026D000F6CFC0911106D091120696E0FE01ABE054
:1026E000B6E001900D929A95E1F7803E90F186E078
:1026F000FE0111928A95E9F7C0911106D091120658
:10270000111133C046E050E0BE018BE096E00E941C
:1027100031349E012B503440892B91F52A5F3F4F75
:1027200040910804642F70E0C9010E949533481B52
:10273000463010F4240F311D211572E0370710F0D8
:1027400030E020E0255F3B4F3093120620931106C6
:10275000B8CFF6E08F9FB00111246B507B4F46E05D
:1027600050E0CE010E941B34C7CF9E012A5F3F4F2D
:10277000FE012E173F0731F2808180958193F9CFBA
:10278000C90145E0969587954A95E1F741E050E00B
:10279000BA0102C0660F771F8A95E2F7CB016091FC
:1027A000090470910A04862B972BB9016B5F7F4F48
:1027B000E5E076956795EA95E1F702C0440F551F6D
:1027C0006A95E2F7842B952B90930A048093090471
:1027D000A5CF1F93CF93DF93EC01162FFE018491B9
:1027E000811104C0DF91CF911F910895612F0E9444
:1027F00058132196F3CFCF93382FE0911106F09123
:102800001206EB50F44020910804622F70E0CF01D3
:102810000E949533281B822F332369F066E00E94C3
:10282000E033C82FC15010F4CF91089560E080E2EA
:102830000E945813F7CF9F01280F311D21153240F8
:1028400018F080E0F0E0E0E08E0F9F2F911D855F93
:102850009B4F9093120680931106E6CFE4EDF1E0D2
:1028600086E0DF011D928A95E9F710924C020E94E2
:10287000EE110895AAE2B0E0E0E4F4E10C94B8337C
:1028800080E396E02091F100DC012D93CD01B6E0CC
:1028900088339B07B9F780913106833009F472C001
:1028A000B8F4813009F449C0823009F4B5C0809190
:1028B000E80083FF8DC280913006909131069A30F6
:1028C00008F086C2E92FF0E0EF56FB4C0C940E3472
:1028D0008A3009F490C08B3009F471C0893039F71F
:1028E00080913006813219F7809134069091350637
:1028F000009711F00297D9F68091E800877F8093C6
:10290000E8008091E80082FF38C09091F300809148
:10291000F200029731F48091F100813011F086309D
:1029200021F48091F100809323068091E8008B7759
:102930008093E8000E944207BACF80913006813A26
:1029400009F0B5CF8091E800877F8093E8008091FF
:10295000340690913506892B61F468E084E296E0B4
:1029600070E00E94EE078091E8008B778093E8008A
:102970009ECF60E090E080E0F3CF80912E06811141
:10298000C0CF95CF80913006813A09F090CF8091E9
:10299000340690913506892B09F089CF8091E800A3
:1029A000877F8093E8008091E80080FFFCCF8091D2
:1029B00082018093F1008091E8008E77B9CF8091F9
:1029C0003006813209F073CF80913406909135063C
:1029D000892B09F06CCF8091E800877F8093E80015
:1029E0000E94420780913206809382011092210654
:1029F0000E942E145CCF80913006813209F057CFAF
:102A00008091E800877F8093E8000E9442078091D0
:102A10003306809322064BCF80913006813A09F02D
:102A200046CF8091E800877F8093E8008091E8009E
:102A300080FFFCCF80912206BCCF803899F082388D
:102A400009F0C6C1809134068F70873008F0C0C18C
:102A50008093E9008091EB0085FB882780F9109234
:102A6000E90006C080912C0690912D06911182609C
:102A70009091E800977F9093E8008093F100109286
:102A8000F1008091E8008E779FC1882309F48DC101
:102A9000823009F09DC180913206811190C18091F0
:102AA00034068F702FEF280F263008F091C18093E5
:102AB000E9002091EB0020FF82C1933031F4809136
:102AC000EB0080628093EB007AC19091EB00906103
:102AD0009093EB0021E030E001C0220F8A95EAF7E5
:102AE0002093EA001092EA008091EB008860EACF20
:102AF00081116EC1109132061F778091E3008078BA
:102B0000812B8093E3008091E800877F8093E80029
:102B10000E9442078091E80080FFFCCF8091E30093
:102B200080688093E30082E0111183E080932E0699
:102B30004FC18058823008F04BC12091320630914D
:102B400033062C3DE3E03E07A1F583E08A838AE269
:102B500089834FB7F894DE01139620E03EE051E2FE
:102B6000E32FF0E050935700E49120FF03C0E2957B
:102B7000EF703F5FEF708E2F90E0EA30C0F0C796A5
:102B80008D939D932F5F243159F74FBF8091E800BB
:102B9000877F8093E8006AE270E0CE0101960E9490
:102BA000EE078091E8008B778093E80011C1C09612
:102BB000E7CF8091340690913506432F5527433057
:102BC000510509F44AC078F54130510509F47AC03D
:102BD0008BE590E0E9EBFCE04230510509F0F8C0EC
:102BE0002091E800277F2093E8002091360630915D
:102BF00037068217930708F49C0140E02115310540
:102C000009F065C0411163C08091E80082FDC9CF21
:102C100080912E06882329F2853019F28091E800F0
:102C200083FFF2CFBECF4132510509F43CC042329E
:102C3000510509F0CDC08330910508F0C9C0FC01F1
:102C4000EE0FFF1FEC53FE4F0190F081E02D8F53EC
:102C50009E4FDC018C9190E01AC033272130310562
:102C6000D1F02115310561F02230310509F0B0C0F5
:102C7000E6E2FDE0E4918E2F90E0E6E2FDE007C0A1
:102C8000EEE4FDE0E4918E2F90E0EEE4FDE00097AD
:102C900009F49EC0A5CFECE3FDE0E4918E2F90E017
:102CA000ECE3FDE0F4CF8330910508F091C0880F8C
:102CB000991FFC01E653FE4F0190F081E02D89E061
:102CC00090E08ECF82E190E0E4E1FDE089CF809159
:102CD0002E06882309F465CF853009F462CF8091F0
:102CE000E80083FD5ECF8091E80082FD8DCF80916A
:102CF000E80080FF83CF9091F3008091F2002115CE
:102D0000310519F08830910550F041E0089709F03D
:102D100040E08091E8008E778093E8006FCF449187
:102D20004093F1003196215031090196E8CF803867
:102D300009F04EC08091E800877F8093E800809181
:102D40002F068093F1009DCE811142C01091320672
:102D50001230F0F58091E800877F8093E8001093AF
:102D60002F060E944207112311F084E005C08091D4
:102D7000E30087FDFACF81E080932E0642E061EC0C
:102D800081E00E94610742E261EC84E00E946107F9
:102D900042E261EC82E00E94610742E260EC83E083
:102DA0000E94610780912E0613C080913206813007
:102DB00079F481E0933009F080E080932D06109241
:102DC000E9008091E800877F8093E8000E94420735
:102DD0008091E80083FF0AC08091E800877F80939C
:102DE000E8008091EB0080628093EB00AA96E3E01C
:102DF0000C94D433109221060E942E142FEF84E3FA
:102E00009CE0215080409040E1F700C0000088E144
:102E10009AE00FB6F894A895809360000FBE909347
:102E20006000FFCFCF92DF92EF92FF926B017C01A7
:102E30000E94AD08B701A60188E090E00E946D34C1
:102E4000FF90EF90DF90CF900895A3E0B0E0EBE229
:102E5000F7E10C94B233F82ED62E042FC22E9091A7
:102E6000030490FF3EC0E92FE695AE2FB0E0AB55CE
:102E7000BE4F8C91809321039E7F9230B1F54937EC
:102E800008F048E79E012F5F3F4F6D2D8F2D0E9468
:102E9000C3084B8169818A810E94760E8091040467
:102EA0008F1108C0809105048D1104C08091060423
:102EB000801729F080912303826080932303F0928E
:102EC0000404D092050400930604CC2051F06091D4
:102ED00003047091040480910504909106040E94FB
:102EE00012172396E9E00C94CE33823019F4009146
:102EF0000604D4CF863019F4F0900404CFCF893083
:102F0000D9F3823159F6E2516E2F6170B62EE695F3
:102F1000F0E0E051FC4F1491E12C60918701E6163E
:102F200018F00E94630DBACFE19EC001112470E039
:102F30000E9495338F2DB11017C0860F2091850107
:102F4000622F6E0D7727771F9B01220F331F260FED
:102F5000371F2C5D3C4F402F093708F048E76D2D97
:102F60000E94C308E394D9CF861BE8CFE3E0F4E0E6
:102F700043812CE0421B08F440E021E06281818122
:102F80000E9425170895E3E0F4E043812CE0420F0E
:102F900008F44FEF21E0628181810E942517089596
:102FA000E3E0F4E0628121E1621B08F460E021E0EB
:102FB000438181810E9425170895E3E0F4E0628156
:102FC00021E1620F08F46FEF21E0438181810E94CB
:102FD00025170895E3E0F4E0818121E043816281D7
:102FE00081510E9425170895E3E0F4E0818121E0FA
:102FF000438162818F5E0E942517089580910704A6
:10300000882319F081508093070460910304709124
:10301000040480910504909106040E9412170895FB
:1030200080910704833018F48F5F809307046091C8
:1030300003047091040480910504909106040E9499
:1030400012170895E3E0F4E083E0808311828FEFAC
:10305000828388E783831482A1E2B3E012968C9185
:103060001297836012968C93608171818281938123
:103070000E941217089568EE7EEF90E080E00E94B3
:10308000793460E082E090E00E945B3460E083E0AD
:1030900090E00E945B341092D40260E084E090E003
:1030A0000E945B3464E082E290E00E945B3460E066
:1030B00085E090E00E945B3460E086E090E00E9452
:1030C0005B346FEF87E090E00E945B3440E050E0BB
:1030D000BA0188E090E00E946D3460E08DE090E0FD
:1030E0000E945B3440E050E0BA0188E190E00E9429
:1030F0006D3460E087E190E00E945B3440E050E096
:10310000BA018CE190E00E946D3470E060E080E2F2
:1031100090E00E94793440E050E0BA0188E190E00C
:103120000E946D3480E00E9458100E94711040E0AF
:1031300050E0BA018FE090E00E946D3440E050E032
:10314000BA0183E190E00E946D340895B0E0A0E000
:10315000ECEAF8E10C94B4337901C82F880FDD0B49
:1031600041155105A9F0FE0193E0EE0FFF1F9A955E
:10317000E1F7E65FFE4F81819281815B9D4F208167
:1031800030E04217530708F49A01A9010E943E3427
:10319000CE010E941F33D82E8823D1F001151105CE
:1031A000B9F083E0CC0FDD1F8A95E1F7FE01E65F01
:1031B000FE4F438150E00417150708F4A801C65FCD
:1031C000DE4F6C817D81615B7D4FC7010E943E3483
:1031D0008D2DCDB7DEB7E7E00C94D033A5E0B0E09D
:1031E000E4EFF8E10C94B1338D83E62E5A01F22E10
:1031F000680180915B068A3028F080E02596EAE03D
:103200000C94CD338D818830C4F31A8219828A835D
:103210006B832C8363E070E0CE0102960E948908E4
:103220008983E0923201F092450110E000E030E045
:1032300020E044E050E0BE016F5F7F4F84E00E94D9
:10324000A6188823D1F24E2D50E030E020E0B501E1
:1032500085E00E94A618882381F230E020E041E05A
:1032600050E0BE016B5F7F4F86E00E94A618882366
:1032700021F20F2D10E0960150E040E070E060E098
:1032800087E00E94A618BACFA8E0B0E0EAE4F9E12E
:103290000C94B73385E0E3E0F4E0DE011196019091
:1032A0000D928A95E1F78091210390912203A091DC
:1032B00023038E839F83A88728854091B202509173
:1032C000B3026091B4027091B5023FB7F894809157
:1032D0001C0690911D06A0911E06B0911F063FBFCF
:1032E000841B950BA60BB70B84369105A105B10580
:1032F00010F42223C1F010E000E030E020E048E0CC
:1033000050E0BE016F5F7F4F83E00E94A6188823C4
:1033100069F00E9463086093B2027093B3028093D5
:10332000B4029093B5021092230381E02896E4E062
:103330000C94D333A4E0B0E0E0EAF9E10C94B733A5
:103340004091AE025091AF026091B0027091B10213
:103350002FB7F89480911C0690911D06A0911E062F
:10336000B0911F062FBF841B950BA60BB70B11E066
:1033700084369105A105B10518F10E941A0F6E5F00
:103380007F4F8F4F9F4F69837A838B839C8310E09D
:1033900000E030E020E044E050E0BE016F5F7F4F8E
:1033A00082E00E94A618182F882351F00E9463081B
:1033B0006093AE027093AF028093B0029093B1021B
:1033C000812F2496E4E00C94D333A6E0B0E0EBEE3A
:1033D000F9E10C94B5337B0101E010E09E012A5F16
:1033E0003F4F50E040E070E060E080E00E94A618AF
:1033F000182F882309F453C04091AA025091AB02C0
:103400006091AC027091AD022FB7F89480911C06C8
:1034100090911D06A0911E06B0911F062FBF841B20
:10342000950BA60BB70B84369105A105B10548F4A1
:1034300065E070E080E592E00E9489089E8189172E
:1034400071F105E010E09E012F5F3F4F50E040E03A
:1034500070E060E081E00E94A618082F65E070E04F
:1034600080E592E00E94890811E09E81981310E0A7
:10347000102301F10E9463086093AA027093AB02CB
:103480008093AC029093AD0285E0FE013196A5EAEF
:10349000B2E001900D928A95E1F711E00BC085E052
:1034A000E0E5F2E0DE01119601900D928A95E1F7D8
:1034B0001111EACF85E0E5EAF2E0D70101900D9223
:1034C0008A95E1F7812F2696E6E00C94D1330E948D
:1034D000340F8093090180910901882359F01092DB
:1034E000830185E2809384010E94E60E81110E948F
:1034F0003332089585E280938301F4CF90E080E039
:103500000E945534883E9E4F19F40E942D11089553
:1035100080E0089528E030E043E060E086E30E9428
:103520001B300895ACE0B0E0E8E9FAE10C94B33365
:103530004F83588769877A878B879C878091390664
:10354000882399F00E948A1A80E50E9493308AEBC2
:103550008A95F1F700C00E94AB30887899278038AF
:10356000910509F487C00E94C3300E94E60E8823AB
:1035700009F46BC00E9463080091E4011091E50119
:103580002091E6013091E7016B017C01C01AD10A5C
:10359000E20AF30A97018601083011052105310579
:1035A00008F453C06093E4017093E5018093E60151
:1035B0009093E70100914706109148062091490633
:1035C00030914A06601B710B820B930B62337105BD
:1035D0008105910580F410923D0610923C061092F0
:1035E0003F0610923E06109241061092400610923D
:1035F000430610924206109146060E94340F482F4F
:10360000BE01695F7F4F8CE396E0112309F45FC030
:103610000E94F10B00914606109139060E94340F6A
:1036200041E04827BE01695F7F4F80E496E00117C3
:1036300009F450C00E94F10B86E0FE013796A5E523
:10364000B6E001900D928A95E1F786E0FE0137968B
:10365000DE01119601900D928A95E1F729813A8158
:103660004B815C816D817E8180E090E02C96E8E06A
:103670000C94CF330E94AB300E94AB307C010E948F
:10368000AB3020E0E22AF82A0E94AB308C010E9485
:10369000AB3020E0022B182B0E94C330F894B70106
:1036A00080913C0690913D060E94A60C90933D06A9
:1036B00080933C06B80180913E0690913F060E949F
:1036C000A60C90933F0680933E0678944ECF0E94BE
:1036D000770CA0CF0E94770CAFCFCF93DF93D82F7A
:1036E000C62F0E948A1A8D2F80680E9493308C2FDB
:1036F0000E9493300E94C3308FEC92E00197F1F763
:1037000000C00000DF91CF910895682F893708F03D
:1037100068E76093440691E09093450690913906DE
:10372000992359F06150811101C064E08FE00E943B
:103730006D1B60E080E50E946D1B0895FB01808198
:103740000E94851B089590914406911101C095E057
:10375000282F880F330BA901490F511DCA011816D4
:10376000190614F081E090E00E94851B0895CF9324
:10377000C82F0E948A1A8C2F0E9493308FE792E004
:103780000197F1F700C000000E94AB30C82F0E94E3
:10379000C3309AE69A95F1F700C08C2FCF91089527
:1037A000CF93DF930E941330269A0E948A1A6AE50B
:1037B0008AE30E946D1B2FEF80E792E0215080404A
:1037C0009040E1F700C0000082E00E94B71B83E058
:1037D0000E94B71B84E00E94B71B85E00E94B71BC4
:1037E00086E00E94B71B60E080E10E946D1B80E0D4
:1037F0000E94B71BD82F81E00E94B71BC82F0E94E0
:10380000C330D23419F481E0C13009F080E0817016
:1038100080933906882341F064E08FE00E946D1B9D
:1038200060E080E50E946D1BDF91CF9108951F92AB
:103830000F920FB60F9211242F933F934F935F93E4
:103840006F937F938F939F93AF93BF93CF93DF93A8
:10385000EF93FF93D091E900DF708091EC00C82FC7
:10386000C17080FDC0E81092E9008091F000877F70
:103870008093F00078940E943A141092E9008091AD
:10388000F00088608093F000CD2BCF70C093E900EA
:10389000FF91EF91DF91CF91BF91AF919F918F9168
:1038A0007F916F915F914F913F912F910F900FBE3C
:1038B0000F901F9018951F920F920FB60F92112420
:1038C0002F933F934F935F936F937F938F939F9328
:1038D000AF93BF93EF93FF938091E10082FF09C004
:1038E0008091E20082FF05C08091E1008B7F809390
:1038F000E1008091DA0080FF24C08091D80080FF31
:1039000020C08091DA008E7F8093DA008091D90008
:1039100080FF9DC080E189BD82E189BD09B400FEC0
:10392000FDCF81E080932E0680912006811109C091
:103930000E94C8060E9493078091E20084608093F1
:10394000E2008091E10080FF17C08091E20080FFDB
:1039500013C08091E2008E7F8093E2008091E200AC
:1039600080618093E2008091D80080628093D800CB
:1039700019BC85E080932E068091E10084FF2BC066
:103980008091E20084FF27C080E189BD82E189BD8A
:1039900089B5982F917080FFFBCF8091D8008F7DE3
:1039A0008093D8008091E1008F7E8093E100809128
:1039B000E2008F7E8093E2008091E200816080933C
:1039C000E20080912F06882309F447C084E08093A9
:1039D0002E0680912E068091E10083FF27C0809102
:1039E000E20083FF23C08091E100877F8093E100A4
:1039F00082E080932E0610922F068091E1008E7F48
:103A00008093E1008091E2008E7F8093E2008091BC
:103A1000E20080618093E20042E060E080E00E948A
:103A200061078091F00088608093F000FF91EF9132
:103A3000BF91AF919F918F917F916F915F914F91C6
:103A40003F912F910F900FBE0F901F90189519BCAA
:103A500010922E061092200674CF8091E30087FD0D
:103A600093E090932E06B5CF78941F921FB61F92C5
:103A700011248F939F93AF93BF9380911C069091D5
:103A80001D06A0911E06B0911F060196A11DB11D35
:103A900080931C0690931D06A0931E06B0931F06EC
:103AA000BF91AF919F918F911F901FBE1F9018954E
:103AB0009C014FB7F89480911C0690911D06A0912F
:103AC0001E06B0911F064FBF821B930B08952FB7A0
:103AD000F89480911C0690911D06A0911E06B0914D
:103AE0001F062FBF08950E94E60E882319F00E943A
:103AF000671D08950E941A0FCB0108956091030479
:103B0000669570E04BE050E085E791E00E94243438
:103B1000892B19F481E0809322030E94731D9093F6
:103B20001C0380931B0380912303846080932303F1
:103B300008959091030490FF31C0917081112FC0BE
:103B40009260909303048091230381608093230308
:103B5000662351F060910304709104048091050480
:103B6000909106040E94121760910304669570E01C
:103B70004BE050E085E791E00E942434892BB1F0BE
:103B80000E94A60881E080931E0320E04091060475
:103B900060910504809104040E94251708958C31DA
:103BA00010F09663CECF880F982BCBCF0E947E1D4E
:103BB000E9CF809103048695815009F48BE161E09F
:103BC0000E94991D08958091030486958F5F8C3122
:103BD00008F081E061E00E94991D0895909103042E
:103BE00090FF08C09695981728F0961718F40E9431
:103BF000E31D089561E00E94991D0895A2E1B0E0DF
:103C0000E4E0FEE10C94AA338C01DC0113968D9163
:103C10009C911497892B39F08C9111969C91892352
:103C20008F3F09F09FC56296E1E10C94C6330E9474
:103C3000BE10F82E682F89819A810E94960B6981A7
:103C40007A818F2D0E94B0107C01F8018281882337
:103C500009F47AC5C70182519F45409708F033C5E2
:103C60008FEF93E00E944734811128C0FEEEEF0EE3
:103C700057EA852E52E0952EE11033C01C821B823C
:103C8000442443944AE0342E74018FEFE81AF80A72
:103C9000C4010E94473489831A82882379F09FEFF8
:103CA000980F933060F58A83498292E0890E911CC7
:103CB000C7010E9447348B83811122C08091430247
:103CC000877009F4B0CFD80112968C91882309F43B
:103CD000AACF8091BD0282FFA6CF82E00E94571238
:103CE000A2CF811424E0920649F3C4010E94473414
:103CF000811101C0EA943FEF831A930ABDCF4701B7
:103D0000DE0111967D01F7012081222309F4BCCF49
:103D1000213009F06DC091818281913061F4F2E02F
:103D2000EF0EF11C65E070E0893311F460E570E09E
:103D30000E94421307C0923039F522E0E20EF11CD6
:103D40000E940913FFEFEF1AFF0A8FE99FE0019726
:103D5000F1F700C00000AFE9BFE01197F1F700C034
:103D60000000EFE9FFE03197F1F700C000008FE9B4
:103D70009FE00197F1F700C00000AFE9BFE01197A5
:103D8000F1F700C00000BFCF933031F432E0E30E12
:103D9000F11C0E94B312D6CF943021F08FEFE81AB5
:103DA000F80AD0CF92E0E90EF11C30E020E0B70134
:103DB0006F5F7F4FD70111964C918053990B8A30DA
:103DC000910558F02150310908F4BCCFEFE9FFE02C
:103DD0003197F1F700C00000F5CF329EF001339E1D
:103DE000F00D11249C012E0F3F1F842F7B01DFCF8C
:103DF000E22FF0E0ED55FE4F5490822F8695869588
:103E0000869590E0FC01ED56FE4F64902770712C72
:103E1000022E02C0759467940A94E2F731E063229F
:103E20007724FC01ED57FE4FA490B12C022E02C066
:103E3000B594A7940A94E2F7A1E0AA22BB24FC015E
:103E4000ED58FE4FC490D12C02C0D594C7942A954A
:103E5000E2F7B1E0CB22DD246114710419F081EEA8
:103E60000E940913A114B10419F086EE0E940913EF
:103E7000E9E365E070E05E1202C060E570E0852D68
:103E80000E944213A114B10419F086EE0E94B312ED
:103E90006114710419F081EE0E94B312C114D104AF
:103EA00009F450CF65E070E08CE242CF81E00E94DF
:103EB0008F120E943E1202CF81E00E944A12F9CF77
:103EC00082E0F5CFF7011EC4E45FF10921E030E0A4
:103ED00001C0220FEA95EAF796E0E5E1F3E0DE01A2
:103EE000179601900D929A95E1F796E0FE013796AC
:103EF000DE011D9601900D929A95E1F79885882331
:103F000089F1292B2E8786E0FE013D96DE01119670
:103F100001900D928A95E1F786E0FE013196A5E1C8
:103F2000B3E001900D928A95E1F7F8018281F6E104
:103F3000EF16FCE5FF0609F06CC0882309F454C0B5
:103F4000809121068A7A91E009F490E09093E8014B
:103F500069E2811165E382ED91E00E946F080E94A1
:103F6000EE11ACCE20952923CDCF8FEFE3C380E0B7
:103F70000E94851B10924B06A1CE409144065091A1
:103F80004B0650FB47F95695537060E070E08FE0A8
:103F900090E00E946D3492CE81950E94A31B8ECE3C
:103FA0009AE0899F802D1124F8CF96EFFACF909157
:103FB000460681E089270E94DD0B80CE90914B065A
:103FC000911101C094E0980F19160CF091E098300F
:103FD00008F097E090934B0671CE90914B069111AB
:103FE00001C094E0981BF0CF8091E80181110FC0CF
:103FF00089E2E4EDF1E02AED31E09191891303C00B
:10400000DF0111971C922E173F07B9F7A8CF85E360
:10401000F0CF811144C18091210682722CECE2160E
:104020002CE5F20609F427C108F09BC096ECE916CE
:104030009CE5F90609F40BC108F06CC0B3ECEB1673
:10404000BCE5FB0609F4F9C008F051C0F2ECEF162C
:10405000FCE5FF0609F4C5C0F8018281E080F1802B
:10406000882309F45AC1C7010E94BE10D82E682FB8
:10407000C7010E94960BB7018D2D0E94B0100E94BF
:10408000E1097C01882ED8011296CC9012971596E2
:10409000BC90B2943FE0B322809143028770C1F09C
:1040A000AC2CCC20B1F08F2D807F803421F080E2C9
:1040B0008E0D883068F08091BD0282FF09C082E0D9
:1040C0000E945712809143028770AA24A394811101
:1040D000A12C9F2C92942FE09222BBE0B91508F4FA
:1040E0008BC1E92DF0E0E556FB4C0C940E3424EC2A
:1040F000E2162CE5F20609F4A5C04AEE57E164EF9A
:1041000077E135ECE3163CE5F30609F0A5CF0E9414
:104110009F08D4CD99ECE9169CE5F90609F4A1C0F5
:1041200080F4B7ECEB16BCE5FB0609F495C04DED49
:1041300057E160ED77E1E8ECEE16ECE5FE0639F3C9
:104140008BCFFAECEF16FCE5FF0609F48FC04EEFBB
:1041500057E160E178E12BECE2162CE5F206B9F2CA
:104160007BCF31EDE3163CE5F30609F4A7CDC8F4A7
:104170009EECE9169CE5F90609F485C008F480C0B8
:10418000BFECEB16BCE5FB0609F480C06EE089E0ED
:10419000E0EDEE16ECE5FE0609F05ECF0E94EE1DA6
:1041A0008DCDF4EDEF16FCE5FF0609F475C068F45B
:1041B00032EDE3163CE5F30609F46BC083EDE81637
:1041C0008CE5F80609F47ACD47CF95EDE9169CE524
:1041D000F90609F473CDADE5EA16FA0609F46ECDD9
:1041E0003BCF8091030480FF20C08E7F8093030427
:1041F0006091030470910404809105049091060479
:104200000E9412170E94A608809123038160809368
:104210002303BFEFE0E7F2E0B150E040F040E1F708
:1042200000C000000E94630D49CD816080930304AB
:1042300061E086950E94991D41CD49ED5DE163EEF7
:104240007DE165CF43EE5DE169ED7DE160CF44EF57
:1042500057E16AEE77E15BCF40ED57E16DED77E135
:1042600056CF46EB57E163EC77E151CF43EC57E192
:1042700066EB77E14CCF40E158E16EEF77E147CF55
:1042800061E081E0D7CF65E082E088CF68E086E03A
:1042900085CF61E18FE082CF6BE182E17FCF2AE5BC
:1042A000E2162DE5F206A9F168F4E1148CE5F806B2
:1042B000B9F09EEDE9169CE5F90609F0CDCE0E9415
:1042C0003B180CC0ACE5EA16ADE5FA06C1F018F1F2
:1042D000E7EAEE16EDE5FE0609F0BECE0E94FA16FC
:1042E000109221060E942E14FFEF24E33CE0F150CF
:1042F00020403040E1F700C000000E945208809149
:10430000BD0282FB882780F991E089270E94731201
:10431000A3CE81E0FBCF80E0F9CFC7010E94620B02
:10432000D82EA9CEEF2DEF70DE2E8F2D807F19F0C5
:10433000D29490EFD922CC20B9F0DD2069F080E250
:104340008E0D883010F0811009C080912106D82A86
:10435000D09221060E94EE118E2D4CC080914C020D
:10436000D82AD0924C02F6CF8E2D0E94B312DD20B7
:1043700009F442C080E28E0D883010F0811004C034
:104380008D2D0E94510B06C0D09480914C02D822F2
:10439000D0924C020E94EE112FC0FF2DFF70DF2E35
:1043A0008F2D807F803219F0D29480EFD822882020
:1043B00089F021E0821609F468C0CC2009F472C0AB
:1043C000BB2009F468C0F801858180FFC5CF8F70DC
:1043D000858361C02091BD0222FD35C0CC2069F1EA
:1043E000DD2039F080912106D82AD09221060E9442
:1043F000EE1180E00E940913E92DE850FF0B34977D
:1044000010F40E94090FAA2009F40DCC80914302F8
:1044100080FD09CCD80112961C92859585958595CD
:104420000E948F12C8010E94FE1D80914302859553
:10443000859585950E944A12F6CB80E00E94B312C2
:10444000DD20D1F29DCFCC2099F090914D02892FA3
:104450008D29B11003C00E94A912CECF31E0B31252
:10446000FACF22FFC9CF981739F280934D02C4CFFB
:10447000B11006C00E944B0B8D2D0E94A212BCCF22
:1044800081E0B81609F4B8CFF5CFCC2031F095E033
:104490009B1508F4B1CF8D2DDECFA4E0AB1508F449
:1044A000ABCFEACFBB2041F3F9E38F1204C12FEF6A
:1044B00037EE83E0215030408040E1F700C000003B
:1044C0008E2D0E94B31298CF8F2D837091F5C1105D
:1044D00093CF4E2D429546954770440F440F8E2D35
:1044E0008F70042E01C0880F0A94EAF72E2D2071D8
:1044F000E4FE07C02FE030E001C0220F4A95EAF742
:1045000020953F2D369536953370323069F050F452
:104510004091D402313029F0822B84230E949B12D7
:104520006BCF842B822BFACF282B8091D402822749
:10453000F5CF8695CC2011F08F2D8170882309F45A
:104540005BCF4E2D429546954770440F440F8E2DFC
:104550008F70042E01C0880F0A94EAF72E2D207167
:10456000E4FE07C02FE030E001C0220F4A95EAF7D1
:1045700020953F2D369536953370323069F050F4E2
:1045800040913806313029F0822B84230E942B126F
:1045900033CF842B822BFACF282B809138068227A9
:1045A000F5CFBF2DBF70FB2ECC2029F08B2F0E94A2
:1045B0008F128E2D50CF8E2D0E94A2128F2D0E9411
:1045C0004A121ACF8E2DE2EF8E16B1F1E81570F077
:1045D000F0EF8F16D1F021EF821691F0CC2009F484
:1045E0005EC0B110B9CE8F2D8F712AC033EF831604
:1045F00051F194EF8912F2CF8091BD0282FD2FC05C
:104600008F2D8F71CC20D9F21BC0CC2081F0A4E07B
:10461000AB1508F4F1CE2F2D2F7181E090E001C091
:10462000880F2A95EAF7909138068927AFCFB5E031
:10463000BB1508F4E1CEEFCF8F2D8F71C110BFCF26
:104640000E948F12D9CE80E0CC2009F49FCF9F2DFD
:104650009F7181E001C0880F9A95EAF797CFCC202F
:1046600099F0EF2DEF71FE2E8E2F0E948F12809108
:10467000BD0282FF07C0F8E0FF9EC00111248360E5
:10468000809343028F2DDCCF81E00E94571221E0FE
:104690002B1508F0B1CE82E00E945712ADCEBB20A0
:1046A00079F0893341F43FEF87EE93E03150804059
:1046B0009040E1F703CFAFE1BEE41197F1F7FECEF2
:1046C0008F2D8F717CCFB0E1EB16BFE5FB0609F4AF
:1046D000EDCBE1E1EE16EFE5FE0609F4F1CBF09249
:1046E0005206E0925106F801808191819093540620
:1046F00080935306C7019A9581159F4108F0E2CB3C
:10470000F701FF27D80112968C91E43FF10548F09C
:10471000E93FF10508F4D8CBEC3ABEE5FB0709F414
:104720004ACC882309F401CC8091D201827209F02D
:104730001CCC81E0E55AFE45EA30F10508F0F5CBE6
:10474000E955FB4C0C940E34F0E1EF16FFE5FF0643
:1047500009F4B2CB21E1E2162FE5F20609F0BFCF52
:1047600082E0ABCB85E0F801DE01119601900D925D
:104770008A95E1F7D80112962C9189819A812111AD
:1047800056CA0E94620BF82E5ACA1F93CF93DF932A
:1047900080911002807F09F049C080910D0288232A
:1047A00009F444C080914202D091110260910B0241
:1047B00070910C02A0910E02B0910F02C62FC72378
:1047C00016E0D81799F190E0109711F0CF3F19F447
:1047D00001968770F6CF189F9001199F300D112414
:1047E000F901EE5EFD4F41814713F2CF4081461340
:1047F000EFCF42814111ECCF438154814A1B5B0BC7
:10480000483C510528F7809110028F708061809399
:104810001002F901E95EFD4F80818F708061808315
:104820008BE092E00E94FE1D0E94580BDF91CF9119
:104830001F910895A1E1B0E0E0E2F4E20C94B133FD
:104840008C0185E0F801DE011D9601900D928A959C
:10485000E1F7F801E2808BE0A82E82E0B82E6091AB
:104860000E0270910F026115710509F426C1909135
:104870000B0240910C02892F84238F3F09F41DC144
:1048800020813181C380D480F0900D02F601E61BB7
:10489000F70BFF2009F4DCC080911002582F507FE5
:1048A000E83CF10508F09FC051116BC0FE2C43138A
:1048B00014C0921312C0E11010C08F7080618093F9
:1048C0001002C5010E94FE1D80911002F80185832F
:1048D0008F2D6196EAE00C94CD33C114D10429F0F8
:1048E000822F83238F3F09F003C180E0F82FF170FE
:1048F000DF2E80FF3CC0809142024091110256E0C1
:10490000841315C02D873E878D859E850E94ED10EE
:10491000292F22952F702230F0F0243018F59F7047
:10492000F1F0F8019581907FD1F4D12C1EC090E078
:10493000589FF001599FF00D1124EE5EFD4F6181EB
:10494000361306C06081261303C06281E6120FC0D1
:1049500001968770D5CF9F7011F0882331F3805E68
:10496000883018F3C8010E94FE1DFD2CB1CFEE2047
:1049700009F4AECF80911002816080931002F12C77
:10498000A7CF431306C0921304C0F801EE2009F428
:1049900079C0C8010E94FA10882309F1EE20F9F0CD
:1049A00080911002803270F020910B0230910C0245
:1049B00038872F831986DB86CA868C87CE010796B7
:1049C0000E94FE1D86E0F801ABE0B2E001900D927E
:1049D0008A95E1F70E94C523FF24F39479CFC8019B
:1049E0000E94FE1DF9CF51110AC08BE092E00E9497
:1049F000FE1D86E0F50111928A95E9F7C0CF4313B9
:104A00000FC092130DC0E1100BC0F8018583C801DF
:104A10000E94FE1D86E0F50111928A95E9F758CFB4
:104A2000C8010E94FA108823D1F2EE20C1F28091D1
:104A30001002803238F220910B0230910C023A833E
:104A400029831B82DD82CC828E83CE010196B8CF72
:104A5000E83CF105F8F6FE2CEE2009F243131FC0E6
:104A600092131DC08091100280FD10C0982F907F7E
:104A700069F0F8018583903F31F0982F907F905F27
:104A80008F70892B8583C8010E94FE1D86E0F80186
:104A9000ABE0B2E001900D928A95E1F719CFC80121
:104AA0000E94FA1081118ECF809110028160809354
:104AB0001002C8010E94FE1D0BCFEE2009F48FCF1B
:104AC000C8010E94FA10F82E882309F488CF86E0E6
:104AD000F801ABE0B2E001900D928A95E1F7809188
:104AE0000B0290910C020E94ED100E94C523F0CEA3
:104AF00081E08E25FBCEA7E1B0E0E1E8F5E20C9481
:104B0000B8334B8B5C8B6D8B7E8B8F8B61111092CE
:104B10004C021A8A198A85E0FE017396DE011D9601
:104B200001900D928A95E1F786E0FE013D96DE0147
:104B3000179601900D928A95E1F7CE0107960E9493
:104B40001A24882359F016E08091420290911102B4
:104B5000891345C06796E3E00C94D43386E0FE01E8
:104B60003796DE01119601900D928A95E1F78A85BC
:104B70009B85892B41F38F81988589238F3F19F37A
:104B80002091110230E0C901019687709927409168
:104B900042024817190681F4109221060E942E1431
:104BA000109211021092420286E0EBE0F2E0DF0187
:104BB0001D928A95E9F7C7CF96E0929FD001939F07
:104BC000B00D1124AE5EBD4FFE01319601900D92E5
:104BD0009A95E1F7809311020E94580BB4CF819F00
:104BE000C00111248E5E9D4F0E941A24882309F46F
:104BF000B1CF8091420290E001968770992780930F
:104C00004202A2CFB0E0A0E0E8E0F6E20C94AF33BD
:104C10003CE5A32E36E0B32E40E0E42E41E0F42E36
:104C200010E088248394912CD7018D917D010E94FE
:104C3000B90C00C0E50109915E0125E0C22E21E01A
:104C4000D22EF601D0E0C0E04191A42FA295AF7022
:104C5000B0E090968C9194010C2E01C0220F0A9422
:104C6000EAF790E04F7002C0959587954A95E2F774
:104C700080FD8AC0022B2196C430D10529F7F701A7
:104C8000319780810E94CD0CA0EAAA95F1F7F50139
:104C90008291801711F0008311E0B5E0EB16B1E0CE
:104CA000FB0611F6EE24E394F12CF60181916F01DD
:104CB0000E94B90C00C097010C2E01C0220F0A946B
:104CC000EAF7522FACE5B6E080E0A82E81E0B82EDE
:104CD0002095F50131915F01832F82958F7090E0CF
:104CE000FC0180A14D9190E03F7002C095958795A1
:104CF0003A95E2F7BD016150710980FD48C0852FEA
:104D0000842BFB0180838081481311E0F5E0AF160E
:104D1000F1E0BF06F1F6F601319780810E94CD0CDB
:104D200020EA2A95F1F72196C830D10509F0BDCFC8
:104D3000C091BB02112371F181E08093DC010E94DC
:104D4000671D9093DB018093DA018091DA019091E5
:104D5000DB010E94581D059708F1D0E0C650DD4FD9
:104D600045E050E06CE576E0CE010E943134892BBD
:104D700041F085E0ECE5F6E0DE0101900D928A95C8
:104D8000E1F71092DC010AC02095022374CF822F34
:104D90008423B7CF8091DC018111D7CF0E94E60E2A
:104DA000082FE091BB02811180C0F0E0E650FD4F7A
:104DB00085E0A0E5B2E001900D928A95E1F765E00B
:104DC00070E080E592E00E94890880934F02C090D5
:104DD0005502D0905602E0905702F0905802809110
:104DE000DD019091DE01A091DF01B091E001C816D4
:104DF000D906EA06FB06D1F0C092DD01D092DE01B1
:104E0000E092DF01F092E0010E94E60E81110EC0F7
:104E10000E946308C61AD70AE80AF90AC092B602C5
:104E2000D092B702E092B802F092B902809160028B
:104E3000882379F180FF0DC08091590280FF2FC037
:104E40009091030491609093030460E086950E9422
:104E5000991D8091600281FF09C020E040915C02B1
:104E600060915B0280915A020E9425178091600236
:104E700082FF06C080915F028823A1F00E947E1D00
:104E80008091600283FF03C081E080931E03109233
:104E90006002812FCDB7DEB7ECE00C94CB330E94DB
:104EA000CE0ED7CF0E94A608EBCFA1E6B6E085E0F4
:104EB000ED0119928A95E9F7CE2FD0E0C650DD4F6B
:104EC00080915B068A30A8F565EE79E1CE010E94FB
:104ED000E20C882309F449C06AE979E1CE010E9415
:104EE000E20C882309F441C064E479E1CE010E9418
:104EF000E20C8823D1F110925B0681E08093E301FC
:104F0000C091BA02D0E0C650DD4F45E050E061E606
:104F100076E0CE010E943134892B09F4BACF85E0C6
:104F2000E1E6F6E0DE0101900D928A95E1F7102F9F
:104F3000B0CF8091E1019091E2010E94581D843F21
:104F4000914010F68091E301882309F4A2CF1092DA
:104F5000E301E091BA02F0E0E650FD4F95E0DF0199
:104F60001D929A95E9F7182F94CF80915B068F3F99
:104F700031F08F5F80935B068A3008F4BECF0E94C9
:104F8000671D9093E2018093E101DCCF1F921FB671
:104F90001F9211248F939F93AF93BF9380911B0611
:104FA000811113C080911C0690911D06A0911E06D0
:104FB000B0911F064196A11DB11D80931C069093D0
:104FC0001D06A0931E06B0931F06BF91AF919F913F
:104FD0008F911F901FBE1F901895CDB7DEB7AE976B
:104FE0000FB6F894DEBF0FBECDBF85B7806885BF12
:104FF00085B7806885BF84B7877F84BF0FB6F89474
:10500000A895809160008861809360001092600094
:105010000FBE80E890E00FB6F89480936100909303
:1050200061000FBE8DE699E09093D1018093D0018D
:105030000E94C8060E9493078091E20084608093DA
:10504000E200789480912E068823A1F01091E90067
:105050001F709091EC00892F817090FD80E8182BD3
:105060001092E9008091E80083FD0E943A141F70BD
:105070001093E90082E084BD93E095BD9AEF97BD5F
:1050800080936E001092B6021092B7021092B8028E
:105090001092B9020E942D11811102C00E9471105C
:1050A0000E94671A809109010E94671A8091050188
:1050B0000E94CD0C809106010E94CD0C80910701C9
:1050C0000E94CD0C809108010E94CD0C00E011E0FF
:1050D00065E0E62E61E0F62ED8018D918D010E94EB
:1050E000CD0CE016F106C1F78091090195E0811120
:1050F00090E09093BB0285E0891B8093BA020E94E6
:10510000E60E811102C00E943632ECE5F6E0AAEF0D
:10511000B2E011921D9226E0E636F207D1F70E9426
:105120007E1A811102C00E943B1882E090E00E942A
:1051300047348093C10284E090E00E944734182FE6
:1051400082E290E00E944734982F812F9093BD0215
:105150008093BC020E9402268FE39CE90197F1F73D
:1051600000C000000E9402268091FA0280FF08C061
:105170006FEF7FEF90E080E00E9479340E94520848
:1051800083E090E00E9447340E949B128091380691
:105190000E94CC0B91E0833009F090E0892F0E94AF
:1051A000DD0B0E94E60E882309F44FC180E0809356
:1051B000F50280E8809308040E94ED306DE070E015
:1051C00086E392E00E94780F892BE9F58091F50241
:1051D00063E070E081FD3BC183E392E00E94780FC1
:1051E000892B89F56DE070E083E292E00E94780FF0
:1051F000892B49F50E946308605A75418F4F9F4F74
:105200006093130670931406809315069093160608
:10521000EBE0F4E080E092E0DF019C011D92215080
:105220003040E1F7F0931206E09311068FEF9FEF05
:1052300090930A048093090481E080931806809378
:1052400017061092F6028091BE02811138C00E94AA
:105250007E1A811104C00E943B180E94221888E027
:1052600090E00E944F346093030470930404809391
:1052700005049093060480912303836080932303A5
:105280006E7F71F40E94221888E090E00E944F34F3
:1052900060930304709304048093050490930604C0
:1052A0000E94AD080E94A6088091030480FF04C0FC
:1052B00060E086950E94991D81E08093BE020E9465
:1052C000E60E811102C00E9436320E94D01B0E945D
:1052D000E60E81112EC081E79FE0909351018093EB
:1052E000500126E130E030934C0120934B0186E3DE
:1052F00090E090934F0180934E0149E559E050931F
:1053000059014093580130935401209353019093D5
:105310005701809356014EE95BE150936101409340
:10532000600130935C0120935B0190935F01809357
:105330005E010E947E1A882389F08FE090E00E942F
:105340004F348B01862F8F770E94851B001F00270B
:10535000001F1370110F102B10934B060E944B0F60
:1053600082E691E090931A068093190650E4652E28
:10537000EE24E39480912E0600E112E1853009F4D9
:10538000A7C00E94022602EC12E08BE991E09CA7E4
:105390008BA7BC012AEF32E0F8019191D9018D91E0
:1053A0009D01DB014D91BD0184234CECC42E42E0F4
:1053B000D42ECE16DF0609F497C0981771F30E9419
:1053C000E60E482E8BE9C82E81E0D82E9AEFA92E42
:1053D00092E0B92E912CD501FD905D01F6018191ED
:1053E0006F01F822D8015D908D015F1429F15F24CF
:1053F000812C77247394852D8721B1F04420A1F06E
:105400008EA29FA291E08F2D872109F490E098A7AA
:105410000E94671D8160782F9AA789A74EA15FA17E
:1054200068A58AA50E947B258394770CB8E08B122F
:10543000E2CFF8013197F0829394EAE09E12CBCF4D
:105440000E946308FF24F39470C082E0B0CE80E332
:1054500092E0C4CE80912E06843039F10E94A20FD2
:105460000E94461110921B0648E150E00FB6F894D6
:10547000A895409360000FBE6092600083B7817F63
:10548000846083BF83B7816083BF7894889583B736
:105490008E7F83BF0FB6F894A895809160008861D5
:1054A00080936000109260000FBE80912D068823CB
:1054B00079F00E940226ABE9B1E0EAEFF2E08191D7
:1054C0009D91892309F097C553E0E430F507B9F7BA
:1054D00080912E06853009F4BDCF109221060E94DE
:1054E0002E140E94090F4DCF981369CF0E94671D9B
:1054F0008C018091BF029091C00208171907A1F09A
:105500008FEF89A38AA31BA20E94671D8160782F59
:105510009DA38CA349A15AA16BA18DA10E947B25BB
:105520001093C0020093BF02F12C0E94E60E8091FE
:105530002203882309F463C080912103E0910304CE
:10554000E695E81BE0931D03823009F077C1F0E097
:10555000E45BFD4FE4910E2F10E0BAEBCB2EBEE0E2
:10556000DB2E80911E03882361F010921E030E949F
:10557000731D90931C0380931B03109220031092C1
:105580001F030E94731DE0911B03F0911C039C01FB
:105590002E1B3F0B2F3F3F4790F52091CE02222339
:1055A000B1F01092CE022091CC023091CD02821B3C
:1055B000930B8F3F9F4758F4205D3A483093CD02BC
:1055C0002093CC0280912303886080932303A090D2
:1055D0001F03B0902003E00FF11FF0931C03E09332
:1055E0001B038BE193E0F601099580911F039091D5
:1055F0002003892B21F4AB2811F0E092CE02809198
:105600001806882351F18091F7029091F8020E94C8
:10561000581DC29708F041C12091090430910A0435
:105620002115310509F04AC2809117068823A9F097
:105630000E9463080091130610911406209115062C
:1056400030911606601B710B820B930B6F3F7F4FDF
:105650008F4F9F4710F40E94A20FF1100E94BD0FC0
:105660000E9446110E94090F9091F902891721F0BA
:105670008093F9020E94630880912E06843009F419
:10568000F0C20E94E60E882309F474CE0E946308DB
:1056900020910A0321116DC00091060310910703A8
:1056A00020910803309109036B017C01C01AD10AD3
:1056B000E20AF30A97018601043F114021053105F2
:1056C00008F457C0609306037093070380930803A0
:1056D00090930903809104039091050301969093A0
:1056E00005038093040319828E010F5F1F4F21E091
:1056F00050E040E060E088E00E94EE18811106C0B2
:1057000080910403909105030A979CF181E08093B6
:105710000A0380933A069981911101C080E0809339
:105720003B068091390610E0882329F00E94340F4F
:1057300011E0811112E080913B06882309F457C4DF
:105740000E94340F811155C482E0182B0E9424114D
:105750006B017C01DC01CB018C7FBC01CD01612B95
:10576000C616D706E806F90611F00E9453100E94EB
:105770004B0F80913B06882309F4FACD0E94630801
:105780006B017C0180910B0390910C03A0910D03A0
:10579000B0910E03A7019601281B390B4A0B5B0B36
:1057A000DA01C9010497A105B10580F119821A82B5
:1057B0001B821C828E010F5F1F4F24E050E040E0EF
:1057C00060E089E00E94EE188823C1F069817A8147
:1057D00080914006909141060E94A60C909341064C
:1057E000809340066B817C818091420690914306B4
:1057F0000E94A60C9093430680934206C0920B032E
:10580000D0920C03E0920D03F0920E0380914506B6
:10581000882309F4ADCD80914406898310E000E02F
:1058200020E0AE014F5F5F4F61E08AE00E94EE181A
:10583000882309F49DCD109245069ACD863059F4FF
:10584000F0E0E75BFD4FE4910E2F10E0AAEACA2ECC
:10585000AEE0DA2E86CE893061F4E695F0E0EA5BC0
:10586000FD4FE4910E2F10E0F6E3CF2EFEE0DF2E89
:1058700078CE00ED17E075EAC72E78E0D72E8F308E
:1058800009F06FCEF0E0ED5BFD4FE4910E2F10E0DC
:10589000EEEACE2EEDE0DE2E64CE0E94671D9093E0
:1058A000F8028093F7028BE094E0909312068093C5
:1058B00011060E94E60E882309F4FAC00091210621
:1058C0000E94090F80FBBB24B0F881FBAA24A0F83A
:1058D00082FBCC24C0F883FBDD24D0F884FB1127A5
:1058E00010F9909138068091D402892B0E94CC0B3C
:1058F000843008F0C4C0E82FF0E0EE0FFF1FE5573A
:10590000FE4F8081918160E00E94E91360E08FE9A1
:1059100092E00E94E91381E00E94FB136A2D8AE95C
:1059200092E00E94E91360E088E992E00E94E913A6
:105930006B2D84E992E00E94E91360E082E992E035
:105940000E94E9136C2D8EE892E00E94E91360E05A
:105950008CE892E00E94E9136D2D88E892E00E94A5
:10596000E91360E086E892E00E94E913612F81E884
:1059700092E00E94E91361E0802F817109F460E0F8
:105980008CE792E00E94E91360E08AE792E00E94CF
:10599000E91361E0802F827209F460E084E792E00D
:1059A0000E94E91360E082E792E00E94E91361E05F
:1059B000802F847409F460E08EE692E00E94E9137F
:1059C00060E08CE692E00E94E913087861E009F457
:1059D00060E088E692E00E94E91381E00E94FB13F8
:1059E0006091460680E592E0662311F087E592E03B
:1059F0000E94E91360E086E692E00E94E91320919C
:105A00004406211101C025E030E227FF02C02195A4
:105A10003DE24AE0822F642F0E94EC33905D909328
:105A2000D20281112FC03093D10230E23093D002E4
:105A300030E23093CF0200ED12E0D8010D9000204B
:105A4000E9F78D010150110950EDC52E52E0D52E18
:105A500060E0C016D10630F18EE592E00E94E913B5
:105A600080914B06811101C084E060E0805D0E945E
:105A7000581380911806882309F4D6CDCDCD86EA37
:105A800092E041CF642F0E94EC33905D9093D1025D
:105A9000822F64E60E94EC33882341F2805D80937C
:105AA000D002C7CFF60181916F010E945813D0CF69
:105AB00060E080EB92E00E94E913DBCF8091F60278
:105AC00061E070E08111B0CD082F10E02B01082EAD
:105AD00002C0440C551C0A94E2F7A9014421552147
